:020000040800F2
:1000000000000220B9020008BF020008C302000875
:1000100035030008390300088103000800000000D0
:10002000000000000000000000000000C9030008FC
:10003000CD030008000000003D040008E1030008B3
:10004000DD030008DD030008DD030008DD03000810
:10005000DD030008DD030008DD030008DD03000800
:10006000DD030008DD030008DD030008DD030008F0
:10007000DD030008DD030008DD030008DD030008E0
:10008000DD030008DD030008DD030008DD030008D0
:10009000DD030008DD030008DD030008DD030008C0
:1000A000DD030008DD030008DD030008DD030008B0
:1000B000DD030008DD030008DD030008DD030008A0
:1000C000DD030008DD030008DD030008DD03000890
:1000D000DD030008DD030008DD030008DD03000880
:1000E000DD030008DD030008DD030008DD03000870
:1000F000DD030008DD030008DD030008DD03000860
:10010000DD030008DD030008DD030008DD0300084F
:10011000DD030008DD030008DD030008DD0300083F
:10012000DD030008DD030008DD030008DD0300082F
:10013000DD030008DD030008DD030008DD0300081F
:10014000DD030008DD030008DD030008DD0300080F
:10015000DD030008DD030008DD030008DD030008FF
:10016000DD030008DD030008DD030008DD030008EF
:10017000DD030008DD030008DD03000800000000C7
:10018000DD030008DD03000800B583B000F054FF74
:10019000384B394A1360394A1360394906E011680F
:1001A0001960043304329842F9D82146354B9942FC
:1001B00005D20A684B6801F10C048868F3E72E4BFE
:1001C0001A68314B9A4200D0FEE72C4B1A682F4B2D
:1001D0009A42F9D1274B2E4A13602E4A13602E4BB8
:1001E00005E00020106004329342FAD80B462B4AF7
:1001F000934204D2194651F8082B5B68F4E7244B6C
:100200001B6813B9234B1B6803B1FEE701F0D8F854
:10021000694601A800F036FE214B224CE41AA410D6
:100220000025AC4214DC204B204CE41AA41000251D
:10023000AC4213DC0099019801F0CAF805461C4B4A
:100240001C4CE41AA410002C0EDC284600F0B6FD6D
:10025000134B53F8253098470135E2E7124B53F81A
:10026000253098470135E3E7013C114B53F8243022
:100270009847E8E7BABADECA00000020DC01002097
:1002800070040008880400087856341232547698B6
:10029000E0010020D46300208804000898040008CE
:1002A00098040008980400089804000898040008BE
:1002B000980400089804000808B5FFF765FF00BE21
:1002C000FEE71EF0040F0CBFEFF30880EFF3098088
:1002D00071463F4A10472DE9F04182B004468846F6
:1002E000124B5E6B9F6B9D6A1B6B13F0020F03D06A
:1002F0000E4BDB6A002B0CDB0D4800F041FECDF805
:1003000000803B4632462946204600F0A1FE00BE52
:10031000FEE74BF6AB6100F015FF0028ECD04FF084
:100320000042024BDA6202B0BDE8F08100ED00E06D
:100330009C21000800BEFEE71EF0040F0CBFEFF387
:100340000880EFF309807146224A10472DE9F041F9
:1003500082B004468846084B5E6B9F6B9D6A0748D7
:1003600000F00EFECDF800803B463246294620467E
:1003700000F06EFE00BEFEE700ED00E0AC210008DC
:100380001EF0040F0CBFEFF30880EFF309807146F5
:10039000114A10472DE9F04182B004468846084BC7
:1003A0005E6B9F6B9D6A074800F0EAFDCDF8008008
:1003B0003B4632462946204600F04AFE00BEFEE794
:1003C00000ED00E0B821000800BEFEE700BEFEE739
:1003D000D70200084D0300089503000800BEFEE7A1
:1003E00008B500F08DF8124B1B68012B18D043B1F3
:1003F000022B19D001220F4B1A6000220C4B1A60FD
:1004000002E001220B4B1A60094B1A68094B1B686A
:100410009A4204D0084A536843F08053536008BDA1
:100420000222044B1A60EFE70022024B1A60EBE74E
:100430008C0300200800002000ED00E0EFF30980AD
:1004400020E9F00F07490A68074B43F82200074CE0
:1004500024680C6053F82400B0E8F00F80F309889A
:100460007047FEE78C030020C863002008000020CE
:100470007823000800000020E00100207823000815
:100480000000001000000010E0010020D8630020F0
:08049000000000100000001044
:1004A00010B50446074B1868074BA3FB00308009C2
:1004B00000F096F8002221464FF0FF3000F04CF893
:1004C000002010BD04000020D34D621008B50B4B76
:1004D0001A6842F400721A601A6842F480621A6064
:1004E0001A6842F480721A60032000F017F80F2097
:1004F000FFF7D6FF01F09AF8002008BD003C02404B
:10050000024A136801331360704700BF980300204C
:10051000014B1868704700BF9803002010B50446CF
:10052000C31E042B0FD80A4AD36823F4E0631B04CC
:100530001B0C240204F4E064234343F0BF6343F440
:100540000033D36010BDA421024800F00FFDEAE79C
:1005500000ED00E0C81F000870B505460C461646C1
:100560000F2A24D80F2C27D81A4BDB68C3F3022399
:10057000C3F10702042A28BF0422191D062920D925
:10058000033B012101FA02F2013A14409C4001FAB6
:1005900003F3013B33401C43002D14DB2401E4B280
:1005A00005F1604505F5614585F8004370BDBC2146
:1005B000094800F0DBFCD5E7BD21074800F0D6FC78
:1005C000D2E70023DDE705F00F052401E4B2034B79
:1005D0005C5570BD00ED00E0C81F000814ED00E0A0
:1005E0000138B0F1807F0AD2064B5860F021064AEC
:1005F00082F823100020986007221A6070470120BB
:10060000704700BF10E000E000ED00E010B50446C8
:10061000042800D038B9042C0BD0094A136823F001
:100620000403136010BD40F2B311064800F09EFCB5
:10063000F1E7034A136843F00403136010BD00BFE1
:1006400010E000E0C81F000830B583B0044603681E
:100650000F2B2DD8236813F0010F3CD06368012BBA
:1006600005D9052B03D0FA219F4800F07FFC9F4B52
:100670009B6803F00C03042B24D09C4B9B6803F075
:100680000C03082B19D02279994B1A706368002B40
:1006900050D0FFF73DFF0546944B1B6813F4003F15
:1006A00019D1FFF735FF401B6428F5D90320D7E1A6
:1006B000F5218D4800F05AFCCCE78C4B5B6813F4B5
:1006C000800FE0D0894B1B6813F4003F03D06368B0
:1006D000002B00F0C281236813F0020F5CD0E368A6
:1006E000012B04D94FF496717F4800F03FFC236939
:1006F0001F2B2ED87D4B9B6813F00C0F34D07B4BF7
:100700009B6803F00C03082B29D0E368002B72D000
:100710000122784B1A60FFF7FBFE0546734B1B68FE
:1007200013F0020F58D1FFF7F3FE401B0228F5D952
:10073000032095E1FFF7ECFE05466C4B1B6813F4B4
:10074000003FC8D0FFF7E4FE401B6428F5D9032022
:1007500086E140F22D11644800F008FCCAE7634BC3
:100760005B6813F4800FD0D1604B1B6813F0020F4D
:1007700004D0E368012B01D0012071E15B480368DC
:1007800023F0F8032169F82292FAA2F2B2FA82F277
:1007900001FA02F213430360236813F0080F4ED0EE
:1007A0006369012B04D940F26D114F4800F0DEFB64
:1007B000636993B30122504B1A60FFF7A9FE054607
:1007C0004A4B5B6F13F0020F39D1FFF7A1FE401BBC
:1007D0000228F5D9032043E14448036823F0F803D5
:1007E0002169F82292FAA2F2B2FA82F201FA02F236
:1007F00013430360D0E700223E4B1A60FFF788FEE8
:1008000005463A4B1B6813F0020FC5D0FFF780FE78
:10081000401B0228F5D9032022E10022364B1A6042
:10082000FFF776FE0546314B5B6F13F0020F06D0E3
:10083000FFF76EFE401B0228F5D9032010E1236864
:1008400013F0040F5ED0A368012B06D9052B04D04A
:1008500040F29711244800F089FB00230193234BB9
:100860001A6C42F080521A641B6C03F0805301939F
:10087000019B224A136843F480731360FFF748FE1C
:1008800005461E4B1B6813F4807F06D1FFF740FE20
:10089000401B0228F5D90320E2E0227A184B1A7097
:1008A000A36883B1FFF734FE0546104B1B6F13F0AE
:1008B000020F27D1FFF72CFE401B41F288339842EC
:1008C000F3D90320CCE0FFF723FE0546074B1B6F4F
:1008D00013F0020F16D0FFF71BFE401B41F28833C6
:1008E0009842F3D90320BBE00C20000800380240F6
:1008F0000238024000004742800E4742007000402C
:1009000070380240A369022B1FD8A369002B00F0A6
:10091000A680554A926802F00C02082A00F0A280D4
:10092000022B18D00022514B1A60FFF7F1FD04464C
:100930004D4B1B6813F0007F00F08D80FFF7E8FD42
:10094000001B0228F4D903208AE04FF4E6714848DE
:1009500000F00CFBD9E7E3693BB1B3F5800F04D09D
:1009600040F2D511424800F001FB236A3F2B28D802
:10097000636A323BB3F5BF7F29D8A36A022B0AD042
:10098000042B08D0062B06D0082B04D04FF4EC71B2
:10099000374800F0EBFAE36A043B0B2B1DD800222A
:1009A000324B1A60FFF7B4FD05462F4B1B6813F05E
:1009B000007F18D0FFF7ACFD401B0228F5D90320BB
:1009C0004EE04FF4EB712A4800F0D0FAD0E740F245
:1009D000D711274800F0CAFACFE740F2D9112448CE
:1009E00000F0C4FADBE7E369226A1343616A47F661
:1009F000C07292FAA2F2B2FA82F201FA02F2134340
:100A0000A26A5208013A4FF4403191FAA1F1B1FAC9
:100A100081F18A401343E16A4FF0706292FAA2F2C8
:100A2000B2FA82F201FA02F213430F4A5360012232
:100A30000E4B1A60FFF76CFD04460B4B1B6813F05E
:100A4000007F06D1FFF764FD001B0228F5D90320C3
:100A500006E0002004E0002002E0012000E0002089
:100A600003B030BD0120FBE7003802406000474280
:100A70000C200008214B9B6803F00C03042B3AD098
:100A8000082B01D01E4870471C4B586800F03F00EF
:100A90005B6813F4800F1ED01A4AB2FBF0F2174BBA
:100AA000586847F6C073184093FAA3F3B3FA83F378
:100AB000D84000FB02F0114B5B6803F440334FF465
:100AC000403292FAA2F2B2FA82F2D34001335B00D2
:100AD000B0FBF3F070470A4AB2FBF0F2074B5868DC
:100AE00047F6C073184093FAA3F3B3FA83F3D840E0
:100AF00000FB02F0DFE70348704700BF0038024008
:100B00000024F40000127A0070B504460D46036814
:100B1000013B0E2B11D8072D15D88A4B1B6803F00B
:100B20000F039D4215D9EBB2864A1370136803F088
:100B30000F039D420DD0012070BD40F23721824845
:100B400000F014FAE7E74FF40E717F4800F00EFA58
:100B5000E3E7236813F0020F1DD0A368A3B1802B35
:100B600012D0902B10D0A02B0ED0B02B0CD0C02BBD
:100B70000AD0D02B08D0E02B06D0F02B04D040F2C6
:100B80004F21714800F0F2F9704A936823F0F003A6
:100B9000A1680B439360236813F0010F6DD0636865
:100BA000032B29D86368012B2CD09A1E012A30D937
:100BB000664A126812F0020F00F0C28063498A6828
:100BC00022F0030213438B60FFF7A2FC0646636822
:100BD000012B25D0022B32D0032B3FD05B4B9B68DF
:100BE00013F00C0F49D0FFF793FC801B41F28833C0
:100BF0009842F3D9032070BD40F25621524800F0CC
:100C0000B5F9CFE7514A126812F4003FD6D101205E
:100C100070BD4E4A126812F0007FCFD1012070BD26
:100C20004A4B9B6803F00C03042B26D0FFF770FCA3
:100C3000801B41F288339842F2D9032070BD434BA8
:100C40009B6803F00C03082B17D0FFF761FC801B97
:100C500041F288339842F2D9032070BD3B4B9B6828
:100C600003F00C030C2B08D0FFF752FC801B41F261
:100C700088339842F2D9032070BD324B1B6803F0D1
:100C80000F039D4209D2EAB22E4B1A701B6803F083
:100C90000F039D4201D0012070BD236813F0040FA3
:100CA00019D0E36883B1B3F5805F0DD0B3F5A05FD1
:100CB0000AD0B3F5C05F07D0B3F5E05F04D04FF4BE
:100CC0002D71214800F052F9204A936823F4E05333
:100CD000E1680B439360236813F0080F1AD023696F
:100CE00083B1B3F5805F0DD0B3F5A05F0AD0B3F543
:100CF000C05F07D0B3F5E05F04D040F2BB211248DB
:100D000000F034F9114A936823F46043216943EAFF
:100D1000C1039360FFF7AEFE0C4B9B6803F0F0033A
:100D2000F02292FAA2F2B2FA82F2D340084AD35CDD
:100D3000D840084B18600F20FFF7B2FB002070BDB1
:100D4000012070BD003C02400C2000080038024029
:100D5000FC1F000804000020014B1868704700BF0A
:100D60000400002008B5034800F022F9012000F03B
:100D700025F800BF3C20000808B503460C4A12685D
:100D80005AB10B4A1068033323F003030344094AA2
:100D9000934206D8064A136008BD0749044A116009
:100DA000EFE700F045FC0C2303604FF0FF3008BD77
:100DB000E401002000FC0120D863002000B530B918
:100DC000044D182420462946ABBE0446FEE7024DDA
:100DD000F7E700BF26000200230002002DE9F041E2
:100DE00084B0234F01970326039600230293012426
:100DF00001AD20462946ABBE80461E4BC3F800809D
:100E0000019703960423029320462946ABBE8046F1
:100E1000194BC3F8008001970396082302932046DC
:100E20002946ABBE0446154B1C60B4F1FF3F01D010
:100E300000230AE0104B1A68104B1A60F8E74FF0D5
:100E4000FF310F4A42F833100133132BF7DD0C4BFF
:100E5000084A12681A6000225A60074909689960B6
:100E6000DA600649096819615A6104B0BDE8F08189
:100E70005020000864020020680200206002002068
:100E80006C0200202DE9F04F83B083468A46354B33
:100E900000934F2301936C46152630462146ABBE86
:100EA0000646002E49D1B14600222E4B83F84F2032
:100EB000009DB046374616E000F0C0FB204490F994
:100EC0000130002B20DB092C1CD03B4653B9082EE7
:100ED00034DC222C1AD0272C18D0234B43F8265070
:100EE00001360127013595F900403CB3002FE3D0CE
:100EF000B8F1000F0DD0A045F4D100232B70C846E7
:100F00004F46EFE70123E1E70123DFE70135A04684
:100F1000E3E700F093FB204490F90130002B0ADB5B
:100F2000092C06D04346002BDCD000232B7047460B
:100F3000D8E73B46F7E73B46F5E700262EB9094BD5
:100F400000221A70084A13600136074B002243F84A
:100F50002620CBF80060CAF80030FFF73FFF03B04F
:100F6000BDE8F08FE80100203802002008B50A46ED
:100F70000146024800F004F8FFF7F4FE5420000890
:100F80000FB400B583B004AB53F8042B0193802158
:100F9000064800F01FFC002803DD0146034800F06E
:100FA00047F803B05DF804EB04B070470C03002071
:100FB00010B5044600F0DAFB0146204600F038F890
:100FC0000121024800F034F810BD00BF18210008CC
:100FD0002DE9F04385B004460F4643560BB10E464B
:100FE0001EE0042528462146ABBE0446384605B01F
:100FF000BDE8F08314F9011B04AA1A4402F8101C7E
:101000000133AB42F6D304AA1344002203F8102C98
:10101000E9464FF0040840464946ABBE8046761B81
:10102000002EE3D03546102E28BF10250023E8E718
:1010300008B5FFF7CDFF08BD08B500F003F9024B76
:10104000024A9A6008BD00BF00ED00E00000000801
:10105000F8B504460D4617461E462748FFF790FF91
:1010600021682648FFF78CFF61682548FFF788FF55
:10107000A1682448FFF784FFE1682348FFF780FF59
:1010800021692248FFF77CFF61692148FFF778FF5B
:10109000A1692048FFF774FFE1691F48FFF770FF5F
:1010A0001E48FFF76DFF29461D48FFF769FF1D4CDD
:1010B000E16A1D48FFF764FF216B1C48FFF760FFE2
:1010C000E16B1B48FFF75CFF15F0800F0AD115F4A8
:1010D000004F0CD11748FFF753FF06991648FFF74A
:1010E0004FFFF8BD39461548FFF74AFFEFE7314695
:1010F0001348FFF745FFEDE7802000089020000827
:10110000A0200008B0200008C0200008D02000085F
:10111000E0200008F020000800210008102100084D
:101120001C21000800ED00E02C2100083C210008F3
:101130004C2100087C210008842100085C21000863
:101140006C21000838B583691B888B4201D00020D0
:1011500038BD044603684568013B302B69D8DFE899
:1011600003F046211C1C5E30332D1919681919191A
:101170001919361924681927683968686868686811
:1011800068686868686868686868686868686868DF
:10119000681919004FF0FF330360A3690233A3619C
:1011A000012038BD00230360F7E700230360F4E764
:1011B00000232B606B60AB60EB60EEE70023036005
:1011C000EBE7AB680360E8E700230360E5E7002393
:1011D0000360E2E7BFF34F8F1749CA6802F4E06289
:1011E000164B1343CB60BFF34F8F00BFFDE714498D
:1011F000286800F0B1FA70B96B6813B90123236055
:10120000CBE7042B02D102232360C6E7082B02D1CF
:1012100003232360C1E74FF0FF332360BDE72B6852
:10122000023B012B02D9AB680360B6E700230360E1
:10123000B3E7002038BD00BF00ED00E00400FA0570
:10124000502000080C4B1A6842F001021A6000217D
:1012500099601A6822F0847222F480321A60074A78
:101260005A601A6822F480221A60D9604FF0006236
:10127000034B9A60704700BF0038024010300024D2
:1012800000ED00E0224B9B6803F00C03042B14D00C
:10129000082B16D01BB11F4A1F4B1A6002E01D4AD3
:1012A0001D4B1A601A4B9B68C3F303131B4AD15C96
:1012B000194A1368CB4013607047194A164B1A60DD
:1012C000F0E7134B5A685B6803F03F0312F4800F9A
:1012D00013D0134AB2FBF3F20D4B5B68C3F38813D0
:1012E00003FB02F30A4A5268C2F301420132520080
:1012F000B3FBF2F3084A1360D4E7064AB2FBF3F2F9
:10130000034B5B68C3F3881303FB02F3EAE700BFF8
:10131000003802400024F40004000020C821000826
:1013200000127A0030B595B000240194214B1A6C5C
:1013300042F080521A641B6C03F080530193019BAE
:1013400002941D4B1A6842F480421A601B6803F431
:1013500080430293029B0123089309934FF4800377
:101360000F93082310934FF4A8731193022512953D
:10137000072313930E9508A8FFF766F90F2303932D
:10138000049505944FF4A05306934FF480530793AC
:10139000052103A8FFF7B8FBFFF7DEFC074BA3FB13
:1013A00000308009FFF71CF90420FFF72FF915B072
:1013B00030BD00BF0038024000700040D34D6210C5
:1013C00008B5FFF783F8FFF7ADFFFFF75BFF08BD38
:1013D00098B500AF264A536943F40073536100F097
:1013E000FBF8002409E0234B234A2449204600F05F
:1013F0000AF9234B43F824000134022C19DC002C99
:10140000F1D0012C0BD0022CF6D11E4B1E4A1B49E9
:10141000204600F0F8F81A4B43F82400ECE71B4B89
:101420001B4A1649204600F0EEF8154B43F82400FD
:10143000E2E70024174B1C60114B1B68403383F319
:1014400009880B4AF02182F82210134B952058602E
:1014500082F823109C6007221A60032383F3148808
:10146000BFF36F8F00F01AF800F0CCF8204698BD5B
:1014700000ED00E0C84300209D140008A0430020B8
:10148000C8630020A023002071150008A0030020DD
:10149000091500088C03002010E000E082B0002352
:1014A000019318E0019A124B9A4207DD019A114B01
:1014B0009A4203DC4FF080520F4B9A61019B01333B
:1014C0000E4A82FB0312D118DA17C2EBA1420C4973
:1014D00001FB12320192019B002BE3DD019A094BC3
:1014E0009A42DFDC4FF48052034B9A61E6E700BF7B
:1014F000F14902001F300500000C0240EB0661C5F7
:1015000020300500EF49020082B00023019317E06C
:10151000019A114B9A4207DD019A104B9A4203DC63
:101520004FF000520E4B9A61019A01320D4981FB36
:101530000231D317C3EB61430B4901FB1323019322
:10154000019B002BE4DD019A084B9A42E0DC4FF44A
:101550000052034B9A61E7E7F1490200DF93040070
:10156000000C0240851DD96FE0930400EF49020092
:1015700082B00023019317E0019A114B9A4207DDD4
:10158000019A104B9A4203DC4FF080420E4B9A6155
:10159000019A01320D4981FB0231D317C3EB61433C
:1015A0000B4901FB13230193019B002BE4DD019AFE
:1015B000084B9A42E0DC4FF48042034B9A61E7E724
:1015C000F1490200DF930400000C0240851DD96F31
:1015D000E0930400EF490200084A136B43F008034C
:1015E0001363074B1A6842F0AA421A609A6842F0E5
:1015F0007F429A600022DA60704700BF00380240E4
:10160000000C0240FEE710B400EB40008400081913
:101610008260436003F570700851C3F8F8230B59DA
:101620004FF08072DA63085910BC704770470000B1
:10163000014B1868704700BF0C000020044B054A9E
:101640001B681B6A002B08BF1346D3F8EC007047D9
:101650000C0000207000002082B001B901A942B145
:101660004BB113780B601278101C18BF012002B028
:1016700070471046FBE76FF00100F8E770B5CD1C2E
:1016800025F0030508350C2D38BF0C25002D064626
:1016900001DBA94203D90C233360002070BD00F0A8
:1016A000B4F8234A1468214691B9224C23681BB927
:1016B000304600F041F820602946304600F03CF802
:1016C000431C26D10C233360304600F09FF8E4E73A
:1016D0000B685B1B1AD40B2B0FD90B60CD50CC18A9
:1016E000304600F093F804F10B00231D20F00700B2
:1016F000C31A1BD05A42E25070BD8C420DBF6368C2
:101700004B686360136018BF0C46E9E70C464968F4
:10171000CAE7C41C24F00304A04205D0211A3046B5
:1017200000F00AF80130CDD02560D9E770BD00BFC8
:10173000900300209403002038B5064C0023054692
:1017400008462360FFF718FB431C02D1236803B14E
:101750002B6038BD9C03002010F8012B11F8013BD1
:10176000012A28BF9A42F7D0D01A7047034613F8CF
:10177000012B002AFBD1181A0138704730B5141E0E
:1017800005469BB0184605DA8B232B604FF0FF30DF
:101790001BB030BD4FF40273ADF80C3014BF04F130
:1017A000FF332346029305934FF6FF730091049194
:1017B000ADF80E3002461E9B6946284600F0D2F86E
:1017C000431CBCBF8B232B60002CE1D0009B00226C
:1017D0001A70DDE707B5009313460A460146034831
:1017E0000068FFF7CBFF03B05DF804FB0C0000209E
:1017F00049B1FF2A85BF8A2303600A704FF0FF308A
:1018000098BF012070470846704770477047000036
:1018100038B50546002945D051F8043C0C1F002B73
:10182000B8BFE418FFF7F1FF1F4A1368104633B939
:10183000636014602846BDE83840FFF7E7BFA34265
:101840000CD921686218934204BF1A685B68636010
:1018500004BF521822600460ECE713465A680AB1CC
:10186000A242FAD919685818A0420BD12068014445
:10187000581882421960DDD1106852685A600144DC
:101880001960D7E702D90C232B60D3E72068211811
:101890008A4204BF11685268626004BF091821605F
:1018A0005C60C7E738BD00BF900300202DE9F0471A
:1018B0008E689E4282460C469146984635D88A8963
:1018C00012F4906F31D0256809696F1A6569022397
:1018D00005EB450595FBF3F508F101033B449D42FB
:1018E00038BF1D46530531D52946FFF7C7FE0646CA
:1018F00050B90C23CAF80030A38943F04003A381F8
:101900004FF0FF30BDE8F0873A46216900F008FB50
:10191000A38923F4906343F08003A381266165616A
:101920003E44ED1B2660A5604646464528BF464618
:1019300032464946206800F0FEFAA3689B1BA3606C
:1019400023681E4426600020BDE8F0872A4600F088
:101950000CFB06460028E1D121695046FFF758FFED
:10196000C7E700002DE9F04F9DB0804603938B89B7
:101970001C060D4616460FD50B696BB94021FFF7C3
:101980007DFE2860286128B90C23C8F800304FF08C
:10199000FF30C5E040236B610023099320238DF8BD
:1019A000293030238DF82A304FF0010B37463C4662
:1019B00014F8013B002B3CD1B7EB060A0BD0534681
:1019C000324629464046FFF771FF013000F0A38000
:1019D000099B534409933B78002B00F09C80002323
:1019E0004FF0FF3204930793059206938DF853301E
:1019F0001A9305222178504800F042FA671C049B94
:101A0000D8B9D90644BF20228DF853201A0744BF05
:101A10002B228DF8532022782A2A16D0079A0021EB
:101A20000A20274601343B78303B092B51D9C9B1F4
:101A300011E0252BC0D02746B9E73F4A801A0BFAA0
:101A400000F0184304903C46D3E7039A111D126836
:101A50000391002A01DB079204E0524243F00203A3
:101A6000079204933B782E2B0ED17B782A2B07F11B
:101A7000010132D1039B1A1D1B680392002BB8BFD2
:101A80004FF0FF33023705932C4C39780322204660
:101A900000F0F6F938B14023001B03FA00F0049B74
:101AA000034304930137397825488DF8281006221E
:101AB0007E1C00F0E5F9002835D0224BFBB9039BD2
:101AC000073323F0070308330393099B4B4409931F
:101AD0006CE700FB02320121A3E7002305931846BF
:101AE0000A240F4601313A78303A092A03D9002BEB
:101AF000CAD00590C8E704FB00200123F1E703AB3F
:101B000000932A46104B04A94046AFF30080B0F181
:101B1000FF3F8146D9D1AB895B063FF538AF0998C5
:101B20001DB0BDE8F08F03AB00932A46064B04A915
:101B3000404600F081F8EAE7432300084923000803
:101B40004D23000800000000AD1800082DE9F04703
:101B500091461F468A680B69DDF820809342B8BF22
:101B60001346C9F8003091F8432006460C4612B1DE
:101B70000133C9F800302368990642BFD9F8003014
:101B80000233C9F80030256815F0060507D104F1C5
:101B9000190AE368D9F800209B1A9D4229DB94F8C2
:101BA00043302268003318BF012392062ED404F17B
:101BB000430239463046C047013021D02368E568EA
:101BC000D9F8002003F00603042B08BFAD1AA36860
:101BD00022690CBF25EAE57500259342C4BF9B1A14
:101BE000ED184FF000091A344D451BD10020BDE817
:101BF000F0870123524639463046C047013003D1B1
:101C00004FF0FF30BDE8F0870135C2E7E1185A1CFC
:101C1000302081F84300224494F8451082F84310A4
:101C20000233C4E70123224639463046C04701301B
:101C3000E6D009F10109D7E72DE9F04317460A7EFE
:101C400085B06E2A984606460C460C9B01F1430E61
:101C500000F0BC801AD8632A2ED00AD8002A00F0DF
:101C6000C880582A00F08A8004F1420584F8422096
:101C70002AE0642A01D0692AF6D121681A6811F095
:101C8000800F23D0111D1960136827E0732A00F01C
:101C9000B48008D86F2A2AD0702AE5D10A6842F0A9
:101CA00020020A6003E0752A21D0782ADCD178224C
:101CB00084F845206E4964E01A6801F14205111D5F
:101CC0001960136884F842300123A3E011F0400F3B
:101CD00002F104011960D7D0B2F90030002B03DA09
:101CE0002D225B4284F8432062490A2217E02068D3
:101CF000196810F0800F03D0081D18600B6806E00B
:101D000010F0400F01F104001860F7D00B8859491A
:101D10006F2A14BF0A220822002084F84300656855
:101D2000A560002DC0F29C80206820F00400206097
:101D3000002B3FD1002D40F095807546082A0BD12D
:101D40002368DA0708D5236962689A42DEBF302328
:101D500005F8013C05F1FF35AEEB05032361CDF835
:101D600000803B4603AA21463046FFF7EFFE0130D4
:101D700055D14FF0FF3005B0BDE8F08381F8452024
:101D80003C492268186812F0800F00F104051D60BC
:101D900001D0036802E05506FBD50388D00744BF95
:101DA00042F0200222601BB9226822F02002226049
:101DB0001022B1E77546B3FBF2F002FB1033CB5CA7
:101DC00005F8013D03460028F5D1B7E708681A6811
:101DD000496910F0800F04D0101D18601368196055
:101DE00007E010F0400F02F1040018601368F6D00D
:101DF0001980002323617546B1E71A68111D196027
:101E0000156862680021284600F03AF808B1401BC6
:101E1000606063682361002384F843309FE723698F
:101E20002A4639463046C0470130A2D023689B0776
:101E300007D5002504F11909E368039A9B1A9D420E
:101E400005DBE068039B9842B8BF184693E701237F
:101E50004A4639463046C04701308AD00135EBE763
:101E6000002BA7D10B7884F8423004F1420565E7D6
:101E70006523000854230008000000000000000053
:101E800001F0FF01102A2BDB10F0070F08D010F82B
:101E9000013B013A8B422DD010F0070F42B3F6D12F
:101EA000F0B441EA012141EA014122F007047FF048
:101EB00000070023F0E80256083C85EA010586EA9F
:101EC000010685FA47F5A3FA87F586FA47F6A5FADB
:101ED00087F68EB9EED1F0BC01F0FF0102F00702E7
:101EE00032B110F8013B013A83EA010313B1F8D192
:101EF0000020704701387047002D06BF3546033873
:101F0000073815F0010F07D1013015F4807F02BFAB
:101F1000013015F4C03F0130F0BC0138704700BFFC
:101F200010B5431E0A44914200D110BD11F8014B77
:101F300003F8014FF7E7884210B501EB020303D81D
:101F4000421E99420CD110BD9842F9D28118D21A82
:101F5000D34200D110BD13F8014D01F8014DF7E750
:101F600011F8014B02F8014FEBE7F8B507461446AC
:101F70000E4621B91146BDE8F840FFF77FBB22B9F4
:101F8000FFF746FC25462846F8BD00F014F88442C9
:101F90000FD921463846FFF771FB05460028F2D0DD
:101FA00031462246FFF7BCFF31463846FFF730FC8A
:101FB000E9E73546E7E751F8040C0028A0F10400F2
:101FC000BCBF0B58C01870472E2E2F7379737465E1
:101FD0006D2F7372632F73746D333266342D6861A5
:101FE0006C2F73746D3332663478785F68616C5F20
:101FF000636F727465782E630000000000000000BB
:102000000102030401020304060708092E2E2F73A0
:10201000797374656D2F7372632F73746D333266C9
:10202000342D68616C2F73746D3332663478785F49
:1020300068616C5F7263632E6300000061626F729F
:102040007428292C2065786974696E672E2E2E00FD
:102050003A7474006173736572745F706172616D5C
:102060002829206661696C65643A2066696C652080
:10207000222573222C206C696E652025640A0000DD
:10208000537461636B206672616D653A0A000000EB
:10209000205230203D2020253038580A0000000012
:1020A000205231203D2020253038580A0000000001
:1020B000205232203D2020253038580A00000000F0
:1020C000205233203D2020253038580A00000000DF
:1020D00020523132203D20253038580A00000000BF
:1020E000204C52203D2020253038580A00000000A6
:1020F000205043203D2020253038580A00000000A1
:1021000020505352203D20253038580A000000004E
:102110004653522F4641523A0A000000204346538C
:1021200052203D2020253038580A000020484653D0
:1021300052203D2020253038580A000020444653C4
:1021400052203D2020253038580A000020414653B7
:1021500052203D2020253038580A0000204D4D46A1
:102160004152203D20253038580A00002042464187
:1021700052203D2020253038580A00004D697363F5
:102180000A000000204C522F4558435F52455455D9
:10219000524E3D20253038580A0000005B486172DD
:1021A000644661756C745D0A000000005B427573E3
:1021B0004661756C745D0A005B55736167654661C5
:1021C000756C745D0A000000000000000000000053
:1021D00001020304060708090000000000000000D7
:1021E00000000000000000000000000000000000EF
:1021F00000000000000000000000000000000000DF
:1022000000000000000000000000000000000000CE
:1022100000000000000000000000000000000000BE
:1022200000000000000000000000000000000000AE
:1022300000000000000000004300504F53495800C8
:102240002E000020202020202020202028282828A0
:102250002820202020202020202020202020202076
:1022600020202088101010101010101010101010C6
:1022700010101004040404040404040404101010D6
:102280001010101041414141414101010101010182
:102290000101010101010101010101010101101010
:1022A0001010101042424242424202020202020256
:1022B00002020202020202020202020202021010E2
:1022C00010102000000000000000000000000000CE
:1022D00000000000000000000000000000000000FE
:1022E00000000000000000000000000000000000EE
:1022F00000000000000000000000000000000000DE
:1023000000000000000000000000000000000000CD
:1023100000000000000000000000000000000000BD
:1023200000000000000000000000000000000000AD
:10233000000000000000000000000000000000009D
:10234000000000232D302B2000686C4C0065666770
:10235000454647003031323334353637383941421B
:1023600043444546003031323334353637383961ED
:0623700062636465660073
:10237800785634120024F4000100000010000020F8
:1023880000000000F821000818220008D8210008E1
:102398000000000000000000000000000000000035
:1023A8000000000000000000000000000000000025
:1023B8000000000000000000000000000000000015
:1023C8000000000000000000000000000000000005
:1023D80000000000000000000000000000000000F5
:1023E80043000000000000000000000000000000A2
:1023F80000000000000000000000000000000000D5
:102408004300000000000000000000000000000081
:1024180000000000000000000000000000000000B4
:102428004300000000000000000000000000000061
:102438000000000000000000000000000000000094
:102448004300000000000000000000000000000041
:102458000000000000000000000000000000000074
:102468004300000000000000000000000000000021
:102478000000000000000000000000000000000054
:102488004300000000000000000000000000000001
:102498000000000000000000000000000000000034
:1024A80043000000000000000000000000000000E1
:1024B8000000000000000000000000000000000014
:1024C800F117000859160008000000004222000811
:1024D8004022000848230008482300084823000831
:1024E8004823000848230008482300084823000818
:1024F8004823000848230008FFFFFFFFFFFFFFFFF6
:10250800FFFFFFFFFFFF000001004153434949005F
:1025180000000000000000000000000000000000B3
:10252800000000000000000000004153434949003A
:102538000000000000000000000000000000000093
:1025480000000000000000000000000032547698EF
:040000050800018965
:00000001FF
